:100000000C9419040C944A040C944A040C944A0469
:100010000C944A040C944A040C944A040C944A0428
:100020000C944A040C944A040C944A040C944A0418
:100030000C944A040C944A040C944A040C944A0408
:100040000C944A040C944A040C944A040C944A04F8
:100050000C944A040C944A040C944A040C94AA1874
:100060000C944A040C941E190C94F4180C944A0431
:100070000C944A040C944A040C944A040C944A04C8
:100080000C944A040C944A040C944A040C944A04B8
:100090000C944A040C944A040C944A040C94541989
:1000A0000C944A040C944A040C944A040C944A0498
:1000B0000C944A040C944A040C944A040C944A0488
:1000C0000C944A040C944A040C944A040C944A0478
:1000D0000C944A040C944A040C944A040C944A0468
:1000E0000C944A040C94AC040C9444060C949808A8
:1000F0000C9461050C94750A0C9415120C941D0C4B
:100100000C94C8040C9493090C947C040C94B604CD
:100110000C94C0040C94F7050C948D120C94A80454
:100120000C94BA040C94010B0C9497040C94C40422
:100130000C9490130C94BF050C94040A0C949F0427
:100140000C949B040C947B080C94E4100C94420BCC
:100150000C9419080C943C140C9493040C94B61150
:100160000C94B1050C948E050C94CC0D0C94A20447
:100170000C94D2040C94741A0C949D050C94360DB6
:100180000C94CE040C9426170C9481040C943D140A
:100190000C94820B0C94EB0B0C94B2040000000046
:1001A000003E5B4F5B3E3E6B4F6B3E1C3E7C3E1CFD
:1001B000183C7E3C181C577D571C1C5E7F5E1C0043
:1001C000183C1800FFE7C3E7FF0018241800FFE7FA
:1001D000DBE7FF30483A060E2629792926407F05BD
:1001E0000507407F05253F5A3CE73C5A7F3E1C1CD3
:1001F00008081C1C3E7F14227F22145F5F005F5F93
:1002000006097F017F006689956A6060606060947E
:10021000A2FFA29408047E040810207E2010080883
:100220002A1C08081C2A08081E101010100C1E0C8E
:100230001E0C30383E3830060E3E0E060000000020
:100240000000005F00000007000700147F147F1407
:10025000242A7F2A1223130864623649562050004C
:1002600008070300001C2241000041221C002A1C38
:100270007F1C2A08083E0808008070300008080823
:100280000808000060600020100804023E51494543
:100290003E00427F400072494949462141494D3361
:1002A0001814127F1027454545393C4A49493141C8
:1002B000211109073649494936464949291E000096
:1002C00014000000403400000008142241141414EB
:1002D0001414004122140802015909063E415D59D7
:1002E0004E7C1211127C7F494949363E41414122E0
:1002F0007F4141413E7F494949417F090909013E0A
:10030000414151737F0808087F00417F4100204030
:10031000413F017F081422417F404040407F021C42
:10032000027F7F0408107F3E4141413E7F09090959
:10033000063E4151215E7F09192946264949493225
:1003400003017F01033F4040403F1F2040201F3FEB
:100350004038403F63140814630304780403615970
:10036000494D43007F4141410204081020004141B2
:10037000417F04020102044040404040000307085E
:100380000020545478407F2844443838444444285A
:10039000384444287F385454541800087E09021801
:1003A000A4A49C787F0804047800447D4000204089
:1003B000403D007F1028440000417F40007C0478CD
:1003C00004787C080404783844444438FC18242415
:1003D0001818242418FC7C08040408485454542495
:1003E00004043F44243C4040207C1C2040201C3C12
:1003F0004030403C44281028444C9090907C446409
:10040000544C44000836410000007700000041369B
:10041000080002010204023C2623263C1EA1A16121
:10042000123A4040207A3854545559215555794153
:100430002254547842215554784020545579400C28
:100440001E5272123955555559395454545939550B
:100450005454580000457C410002457D420001454E
:100460007C407D1211127DF0282528F07C545545E2
:10047000002054547C547C0A097F4932494949324E
:100480003A4444443A324A4848303A4141217A3A5F
:1004900042402078009DA0A07D3D4242423D3D402B
:1004A00040403D3C24FF2424487E4943662B2FFCDA
:1004B0002F2BFF0929F620C0887E09032054547988
:1004C000410000447D413048484A32384040227A59
:1004D000007A0A0A727D0D19317D2629292F2826D6
:1004E0002929292630484D402038080808080808DE
:1004F0000808382F10C8ACBA2F102834FA00007B37
:10050000000008142A142222142A14085500550049
:1005100055AA55AA55AAFF55FF55FF000000FF0038
:10052000101010FF00141414FF001010FF00FF1033
:1005300010F010F0141414FC001414F700FF000065
:10054000FF00FF1414F404FC141417101F10101FE4
:10055000101F1414141F00101010F0000000001FD2
:10056000101010101F10101010F010000000FF10DD
:100570001010101010101010FF10000000FF1400D9
:1005800000FF00FF00001F10170000FC04F414140B
:100590001710171414F404F40000FF00F7141414D7
:1005A00014141414F700F7141414171410101F1057
:1005B0001F141414F4141010F010F000001F101F7A
:1005C0000000001F14000000FC140000F010F010E8
:1005D00010FF10FF141414FF141010101F0000005F
:1005E00000F010FFFFFFFFFFF0F0F0F0F0FFFFFF63
:1005F0000000000000FFFF0F0F0F0F0F38444438BA
:1006000044FC4A4A4A347E02020606027E027E0208
:1006100063554941633844443C04407E201E200613
:10062000027E020299A5E7A5991C2A492A1C4C7250
:1006300001724C304A4D4D303048784830BC625AD7
:10064000463D3E494949007E0101017E2A2A2A2A67
:100650002A44445F444440514A444040444A514043
:100660000000FF0103E080FF000008086B6B083604
:1006700012362436060F090F060000181800000075
:100680001010003040FF0101001F01011E00191D64
:100690001712003C3C3C3C000000000004E010024B
:1006A0001C07123732292D29252B3900010310E1AF
:1006B00010031D07062E2C292D2E2E373F00000279
:1006C0001013800A298064022A04000200812B048E
:1006D000000100A00F0180961180FFB103012C2DB5
:1006E000B203012C2DB306012C2D012C2DB40107D2
:1006F000C003A20284C101C5C2020A00C3028A2A41
:10070000C4028AEEC5010E20003601C83A01050078
:10071000002100240027002A002D003000330001B2
:10072000010000040107010A0100000A0B02090C84
:100730000D0E080703040100000000000000000087
:1007400000000000000000000000000000000000A9
:100750000000000000121110000000000000000066
:100760000000000000000000000000000000000089
:100770000020002300260029002C002F003200005A
:1007800001000003010601090101021020200808F0
:1007900010204010204080020102010804020101E3
:1007A00002040810204080804020100804020180CC
:1007B0000402018040201008040201080402010123
:1007C000020408102040800102040810204080002C
:1007D000002200250028002B002E003100340002EA
:1007E000010000050108010B0105050505070508C5
:1007F000080808020202020A0A08080404040401A4
:1008000001010101010101030303030303030304C5
:100810000707070C0C0C0C0C0C0C0C020202020655
:10082000060606060606060B0B0B0B0B0B0B0B0046
:10083000741A11241FBECFEFD1E2DEBFCDBF00E09E
:100840000CBF12E0A0E0B2E0E2E0F5E400E00BBF94
:1008500002C007900D92AA36B107D9F723E0AAE6A5
:10086000B2E001C01D92AF3EB207E1F714E0C9E16A
:10087000D4E000E006C021970109802FFE010E940C
:100880006322C831D10780E00807A9F70E94BC1B8A
:100890000C947F220C940000282F30E0F901E75DD2
:1008A000F84F9491F901E757F84F44912751384F89
:1008B000F9012491222309F435C0992311F19150B3
:1008C0009231F8F4E92FF0E08827E659FB4F8F4F7B
:1008D0000C9463229B049F047C049304970481047A
:1008E000A204A804AC04B204B604BA04C004C4044C
:1008F0008104C804CE04D204809180008F77809355
:100900008000E22FF0E0EE0FFF1FE153F84FA591BA
:10091000B4918FB7F894EC91611148C040954E2383
:100920004C938FBF0895809180008F7DE8CF809198
:100930008000877FE4CF84B58F7784BDE2CF84B514
:100940008F7DFBCF8091B0008F778093B000D9CF9F
:100950008091B0008F7DF9CF809190008F77809348
:100960009000CFCF809190008F7DF9CF8091900043
:10097000877FF5CF8091A0008F778093A000C1CFB3
:100980008091A0008F7DF9CF8091A000877FF5CF67
:10099000809120018F7780932001B3CF8091200137
:1009A0008F7DF9CF80912001877FF5CF4E2BB8CF77
:1009B000CF93DF9390E0FC01E757F84F24918751E4
:1009C000984FFC0184918823D1F090E0880F991F03
:1009D000FC01E15FF84FA591B491FC01E153F84FA0
:1009E000C591D49161110EC09FB7F8948C91E22FFC
:1009F000E0958E238C932881E223E8839FBFDF91CB
:100A0000CF9108958FB7F894EC91E22BEC938FBFC0
:100A1000F6CF3FB7F8948091E1029091E202A09165
:100A2000E302B091E40226B5A89B05C02F3F19F060
:100A30000196A11DB11D3FBFBA2FA92F982F88275E
:100A4000BC01CD01620F711D811D911D42E0660F39
:100A5000771F881F991F4A95D1F708958F929F920B
:100A6000AF92BF92CF92DF92EF92FF926B017C0127
:100A70000E9409054B015C01C114D104E104F10499
:100A8000B9F00E940905681979098A099B09683E2D
:100A900073408105910580F321E0C21AD108E10875
:100AA000F10888EE880E83E0981EA11CB11CE4CFEB
:100AB000FF90EF90DF90CF90BF90AF909F908F907E
:100AC0000895AF92BF92CF92DF92EF92FF920F9371
:100AD0001F93CF93DF936C017B018B01040F151FD4
:100AE000EB015E01AE18BF08C017D10759F069913C
:100AF000D601ED91FC910190F081E02DC601199590
:100B0000892B79F7C501DF91CF911F910F91FF904C
:100B1000EF90DF90CF90BF90AF900895FC01538D80
:100B2000448D252F30E0842F90E0821B930B5417C7
:100B300010F0CF96089501970895FC01918D828D54
:100B4000981761F0A28DAE0FBF2FB11D5D968C91ED
:100B5000928D9F5F9F73928F90E008958FEF9FEF2C
:100B60000895FC01918D828D981731F0828DE80FE8
:100B7000F11D858D90E008958FEF9FEF0895FC01A2
:100B8000918D228D892F90E0805C9F4F821B91096F
:100B90008F739927089585EE92E00E94BF0521E0AA
:100BA000892B09F420E0822F0895FC01A48DA80F61
:100BB000B92FB11DA35ABF4F2C91848D90E001969F
:100BC0008F739927848FA689B7892C93A089B189BF
:100BD0008C91837080648C93938D848D981306C060
:100BE0000288F389E02D80818F7D80830895EF92C4
:100BF000FF920F931F93CF93DF93EC0181E0888FD7
:100C00009B8D8C8D98131AC0E889F989808185FFA6
:100C100015C09FB7F894EE89FF896083E889F98948
:100C200080818370806480839FBF81E090E0DF914A
:100C3000CF911F910F91FF90EF900895F62E0B8D9D
:100C400010E00F5F1F4F0F731127E02E8C8D8E1158
:100C50000CC00FB607FCFACFE889F989808185FFBF
:100C6000F5CFCE010E94D505F1CFEB8DEC0FFD2F16
:100C7000F11DE35AFF4FF0829FB7F8940B8FEA897A
:100C8000FB8980818062CFCFCF93DF93EC01888D89
:100C90008823B9F0AA89BB89E889F9898C9185FDF7
:100CA00003C0808186FD0DC00FB607FCF7CF8C9185
:100CB00085FFF2CF808185FFEDCFCE010E94D50563
:100CC000E9CFDF91CF91089580E090E0892B29F062
:100CD0000E94CB0581110E94000080E090E0892BEA
:100CE00049F080E090E0892B29F00E9400008111FA
:100CF0000E94000080E090E0892B49F080E090E0C5
:100D0000892B29F00E94000081110E94000080E0E0
:100D100090E0892B49F080E090E0892B29F00E9437
:100D2000000081110C940000089520919102260F7B
:100D30003327331F21323105ECF42091B502FC0139
:100D400090E080E0243069F082E00895A091910263
:100D50002191AC014F585D4FA40FB52FB11D2C93BD
:100D60000196861798F380919102680F6093910223
:100D700080E0089581E0089508958FEF9FEF089532
:100D80008FEF9FEF089580916A0290E09195819591
:100D900091090895CF93DF93CB01EA01642F0E945C
:100DA0009506CE01DF91CF910895CF93DF931F92E7
:100DB000CDB7DEB7698361E0CE0101960E9495064A
:100DC00081E090E00F90DF91CF910895FC01A5A103
:100DD000B6A18C9192A589238C93A5A1B6A18C91E3
:100DE00091A5892B8C930895DC019396ED91FC914C
:100DF0009497908198968C91892380830895DC0143
:100E00009396ED91FC919497908197968C91892B74
:100E100080830895DC019196ED91FC9192979081E9
:100E200096968C91892380830895DC019196ED91AB
:100E3000FC919297908195968C91892B808308954F
:100E4000CF92DF92EF92FF921F93CF93DF93EC014B
:100E50006A017B018DA9811123C08F2D9927AA27B3
:100E6000BB278EBD0DB407FEFDCFC701AA27BB2748
:100E70008EBD0DB407FEFDCFBB27AF2D9E2D8D2D52
:100E80008EBD0DB407FEFDCFCEBC0DB407FEFDCF69
:100E9000DF91CF911F91FF90EF90DF90CF90089559
:100EA0008130B1F410E2CE01F7FE0FC00E941507A9
:100EB000CE010E94FF06CE010E94F406CC0CDD1C80
:100EC000EE1CFF1C115079F7E3CF0E940A07F0CF08
:100ED000EF8DF8A18F2D9927AA27BB278083CE01FC
:100EE0000E94E606EF8DF8A1C701AA27BB278083E1
:100EF000CE010E94E606EF8DF8A1BB27AF2D9E2DF7
:100F00008D2D8083CE010E94E606EF8DF8A1C08270
:100F1000CE01DF91CF911F91FF90EF90DF90CF90A6
:100F20000C94E606FF920F931F93CF93DF93EC018F
:100F30008B018DA981110EC01EBD0DB407FEFDCF22
:100F40000EBD0DB407FEFDCFDF91CF911F910F9124
:100F5000FF9008958130B1F490E1F92ECE0117FF92
:100F60000EC00E941507CE010E94FF06CE010E940E
:100F7000F406000F111FFA94F110F0CFE5CF0E9494
:100F80000A07F1CFEF8DF8A11083CE010E94E6068B
:100F9000EF8DF8A10083CE01DF91CF911F910F91CA
:100FA000FF900C94E6060F931F93CF93DF93EC0111
:100FB000162F8DA9811109C06EBD0DB407FEFDCF9E
:100FC000DF91CF911F910F910895813099F408E03E
:100FD000CE0117FF0CC00E941507CE010E94FF062C
:100FE000110FCE010E94F406015091F7E9CF0E9443
:100FF0000A07F3CFEF8DF8A16083CE01DF91CF9187
:101000001F910F910C94E606CF93DF93EC01ED8DC9
:10101000FE8D80819CA989238083CE010E94D30705
:10102000ED8DFE8D80819BA9892B8083DF91CF91EF
:1010300008958F929F92AF92BF92CF92DF92EF92DC
:10104000FF920F931F93CF93DF93EC0189AD9AAD7D
:10105000680F791F8BAD9CAD480F591F2150310986
:10106000260F371F4901B12CA12CCB01B0E0A0E025
:10107000DC0199278827882A992AAA2ABB2A68018D
:1010800081E0C81AD108C40ED51EF12CE12C70E005
:1010900060E0BA0155274427C42AD52AE62AF72A50
:1010A0006AE2CE010E940408B501A401CE010E94AB
:1010B00020076BE2CE010E940408B701A601CE0111
:1010C0000E9420076CE2CE01DF91CF911F910F911A
:1010D000FF90EF90DF90CF90BF90AF909F908F9058
:1010E0000C940408FC0185A9811104C091A182A17E
:1010F0009CBD8DBD08951F93CF93DF93EC01162FF8
:10110000E881F9810284F385E02D1995112371F0AE
:101110006DADCE010E940408E881F9810688F78947
:10112000E02DCE01DF91CF911F9119946EADF1CFDB
:10113000AF92BF92CF92DF92EF92FF920F931F93E5
:10114000CF93DF93EC0177FD38C0888599856817C8
:1011500079079CF557FD31C08A859B85481759074B
:1011600064F569017A015B01E881F9810284F38504
:10117000E02DCE011995E881F98102A4F3A5E02DB7
:1011800001E010E021E030E0A701B501CE011995A2
:10119000B601CE010E949207E881F9810688F7899D
:1011A000E02DCE01DF91CF911F910F91FF90EF9035
:1011B000DF90CF90BF90AF901994DF91CF911F91A6
:1011C0000F91FF90EF90DF90CF90BF90AF90089578
:1011D0008F929F92AF92BF92CF92DF92EF92FF9247
:1011E0000F931F93CF93DF93EC0149015701E881DF
:1011F000F98102A4F3A5E02D19959401D8010E946C
:101200006B226B017C01C114D104E104F10409F4E7
:101210007DC08DA9811115C081E0C81AD108E108EF
:10122000F1088FEFC816D806E806F80609F46EC074
:10123000BEBC0DB407FEFDCFAEBC0DB407FEFDCFA6
:10124000EBCF813099F581E0C81AD108E108F108A7
:101250008FEFC816D806E806F80609F457C00B2D1C
:1012600018E0CE0107FF1CC00E941507CE010E94A6
:10127000FF06CE010E94F406000F115091F70A2DCF
:1012800018E0CE0107FF0FC00E941507CE010E9493
:10129000FF06CE010E94F406000F115091F7D3CF44
:1012A0000E940A07E3CF0E940A07F0CFBA1016C0C7
:1012B000CC0CDD1CEE1CFF1CEF8DF8A1B08281E090
:1012C000C81AD108E108F1088FEFC816D806E80659
:1012D000F806E1F0CE010E94E606F1CF81E0C81ADF
:1012E000D108E108F1088FEFC816D806E806F8061D
:1012F00069F0EF8DF8A1B082CE010E94E606EF8D75
:10130000F8A1A082CE010E94E606E8CFDF91CF913E
:101310001F910F91FF90EF90DF90CF90BF90AF9013
:101320009F908F9008958F929F92AF92BF92CF928D
:10133000DF92EF92FF920F931F93CF93DF935C01A5
:101340004B016A01E90177FD52C0DC0118968D91CD
:101350009C91681779070CF04AC0209709F447C0A0
:1013600037FF07C0C9010196C80ED91ED195C19596
:10137000D109F50182859385C816D906C4F5A60161
:101380004C0F5D1F9A012150310937FD30C0D7FE47
:1013900003C0EA01D12CC12C281739071CF0EC013D
:1013A000CC19DD09D501ED91FC910284F385E02D86
:1013B000C501199578018E0121E030E0A601B40144
:1013C000C5010E94E808D501ED91FC910688F789D6
:1013D000E02DC501DF91CF911F910F91FF90EF900C
:1013E000DF90CF90BF90AF909F908F901994DF9136
:1013F000CF911F910F91FF90EF90DF90CF90BF9012
:10140000AF909F908F9008958F929F92AF92BF92CE
:10141000CF92DF92EF92FF920F931F93CF93DF93C0
:101420005C016B014A01E90157FD52C0DC011A96CB
:101430008D919C91481759070CF04AC0209709F4E8
:1014400047C037FF07C0C9010196C80ED91ED19504
:10145000C195D109F50180859185C816D906C4F5D5
:10146000A6014C0F5D1F9A012150310937FD30C094
:10147000D7FE03C0EA01D12CC12C281739071CF074
:10148000EC01CC19DD09D501ED91FC910284F385C5
:10149000E02DC5011995780101E010E09E01A4013D
:1014A000B601C5010E94E808D501ED91FC910688BE
:1014B000F789E02DC501DF91CF911F910F91FF902A
:1014C000EF90DF90CF90BF90AF909F908F90199446
:1014D000DF91CF911F910F91FF90EF90DF90CF9010
:1014E000BF90AF909F908F9008958F929F92AF92F0
:1014F000BF92CF92DF92EF92FF920F931F93CF9301
:10150000DF934C016B015A01E901209709F46CC08B
:101510000115110509F468C037FF07C0C90101961C
:10152000C80ED91ED195C195D109F401A085B18508
:10153000CA16DB060CF058C017FF07C0C801019699
:10154000A80EB91E119501951109F40182859385A4
:10155000A816B9060CF048C0F601EC0FFD1FAF014C
:101560004150510957FD40C0B501600F711F9B01EB
:101570002150310937FD38C0D7FE03C0EF01D12C0F
:10158000C12CB7FE03C08B01B12CA12C4A175B07FD
:101590001CF0ED01CC19DD09281739071CF08C016E
:1015A0000A191B09D401ED91FC910284F385E02D09
:1015B000C40119959E01A501B601C4010E94E80865
:1015C000D401ED91FC910688F789E02DC401DF91EB
:1015D000CF911F910F91FF90EF90DF90CF90BF9030
:1015E000AF909F908F901994DF91CF911F910F91A1
:1015F000FF90EF90DF90CF90BF90AF909F908F9033
:101600000895EF92FF920F931F93CF93DF9377FD8F
:1016100032C0DC011896ED91FC916E177F075CF5E6
:101620002115310541F137FF07C0F90131964E0F01
:101630005F1F319521953109DC011A96ED91FC91DE
:101640004E175F07C4F4EA01C20FD31FDE011197E2
:10165000B7FD11C057FF03C09E0150E040E0AE1738
:10166000BF071CF09F01241B350B7801890121E085
:1016700030E00E94E808DF91CF911F910F91FF9019
:10168000EF900895EF92FF920F931F93CF93DF9304
:1016900057FD31C0DC011A96ED91FC914E175F07A2
:1016A00054F52115310539F137FF07C0F90131969D
:1016B0006E0F7F1F319521953109DC011896ED9150
:1016C000FC916E177F07BCF4EB01C20FD31FDE0144
:1016D0001197B7FD10C077FF03C09E0170E060E076
:1016E000AE17BF071CF09F01261B370B780101E0E6
:1016F00010E00E94E808DF91CF911F910F91FF90B9
:10170000EF9008958F929F92AF92BF92CF92DF9207
:10171000EF92FF920F931F93CF93DF934701211511
:10172000310509F44BC00115110509F447C037FF15
:1017300007C0F90131966E0F7F1F31952195310950
:10174000DC011896AD90BC906A157B05BCF517FFBF
:1017500007C0F80131964E0F5F1F119501951109D1
:10176000DC011A96ED91FC914E175F073CF56B0179
:10177000C20ED31EE6012197D7FD20C07A01E00EEC
:10178000F11ED7011197B7FD19C077FF03C096016D
:1017900070E060E057FF03C0870150E040E0CA15E9
:1017A000DB051CF09501261B370BAE17BF071CF09D
:1017B0008F01041B150B74010E94E808DF91CF9183
:1017C0001F910F91FF90EF90DF90CF90BF90AF905F
:1017D0009F908F900895EF92FF920F931F93CF9356
:1017E000DF93EC0177FD22C088859985681779071A
:1017F000ECF457FD1BC08A859B8548175907B4F444
:101800007901E881F98102A4F3A5E02D01E010E05F
:1018100021E030E0CE011995B701CE01DF91CF91E3
:101820001F910F91FF90EF900C949207DF91CF9151
:101830001F910F91FF90EF900895CF93DF93EC01EC
:101840000E9472088FA987FD06C0EB8DFC8D8081F8
:101850009AA989238083DF91CF9108950895AF924B
:10186000BF92CF92DF92EF92FF920F931F93CF938D
:10187000DF93BC016F5F7F4FFC011491115008F49E
:101880007AC0FB01D4917B01F2E0EF0EF11CFB0169
:1018900031960491C02FCF7788EA93E00E947208B6
:1018A0008091DF0387FD09C0E091C303F091C40379
:1018B00080819091DA0389238083E091C503F091C0
:1018C000C60380819091DC03892380836D2F88EA91
:1018D00093E00E94D307E091C503F091C603808195
:1018E0009091DB03892B8083F701B12CA12CD0E0F0
:1018F000AC16BD06F4F48091DD036F01823081F4F3
:101900008091D803882361F0619171916F0188EA19
:1019100093E00E949207EFEFAE1ABE0AF601E8CFFD
:101920008FEFC81AD80A649188EA93E00E94D3071F
:10193000F2CF8091DF0387FD09C0E091C303F091EE
:10194000C40380819091D903892B8083B7016C0FE8
:101950007D1F07FF93CFEB012196FB01649170E09F
:101960006F3F710511F464EF71E090E080E00E9438
:101970002E05BE0183CFDF91CF911F910F91FF9074
:10198000EF90DF90CF90BF90AF9008950F931F938B
:10199000CF93DF93EC018B010E9472088FA987FD22
:1019A00006C0EB8DFC8D80819AA989238083ED8D03
:1019B000FE8D80819CA98923808366E3CE010E94ED
:1019C000D307ED8DFE8D80819BA9892B80838DA906
:1019D000F801823091F06081CE010E94D3078FA977
:1019E00087FD06C0EB8DFC8D808199A9892B8083B2
:1019F000DF91CF911F910F91089588A9882359F302
:101A000060817181CE010E949207E9CFCF93DF936D
:101A10001F92CDB7DEB7FC0119826370668BDC01C3
:101A2000AD5BBF4F2C9130E011968C9190E062300D
:101A300031F06330C9F0613081F040EC498332AF5E
:101A400021AF94AF83AFBE016F5F7F4FCF010E9484
:101A5000C60C0F90DF91CF91089540EA498334AFCF
:101A600023AF92AF81AFEFCF40E6F8CFCF93DF93B4
:101A70001F92CDB7DEB7FC0119826370668BDC0163
:101A8000AA5BBF4F8C91982F9B7FAF014C5B5F4F40
:101A9000913031F493E0623008F091E0DA019C93E8
:101AA0009F012D5B3F4F623009F44CC0633009F455
:101AB00059C0613069F1823021F098EC843009F02E
:101AC00046C090EC99838130D1F480E890E0938710
:101AD000828791878087D9018C9190E092AF81AF06
:101AE000DA018C9190E094AF83AFBE016F5F7F4FBE
:101AF000CF010E94C60C0F90DF91CF9108958430E2
:101B000051F580EA90E09387828780E590E0E1CF0D
:101B1000823019F098EA843061F590EA9983813037
:101B200091F580E890E09187808793878287D9013B
:101B30008C9190E094AF83AFDA018C9190E092AFFA
:101B400081AFD3CF823039F08430D9F298E09983D5
:101B5000813009F4BACF80EA90E09387828780E8E9
:101B600090E0B7CF823019F098E6843011F490E617
:101B7000D5CF99838130A9F280EA90E09187808760
:101B800080E890E0D2CF8430B9F780EA90E0918786
:101B9000808780E590E0C9CFFC0187A987FD06C05A
:101BA000A38DB48D9C9181A9892B8C9308952F923C
:101BB0003F924F925F926F927F928F929F92AF92DD
:101BC000BF92CF92DF92EF92FF920F931F93CF932A
:101BD000DF9300D000D000D01F92CDB7DEB73C011C
:101BE0007E836D835A874987290188EA93E00E94A2
:101BF0001D0C29853A85220F331F2F5F3F4F4D81E2
:101C00005E8189859A85481B590B8201B30188EA58
:101C100093E00E94010B81E090E01C0129853A8548
:101C2000221A330AC9019195819591099C01220FCD
:101C3000331F3C832B83F12CE12C81E090E09A83CD
:101C400089832D813E812F5F3F4F38872F83898580
:101C50009A85E816F9060CF060C0C984DA8437FC6E
:101C60000CC06C0191E0C91AD1082B813C812E5F18
:101C70003F4F3C832B83220E331E3FEFE31AF30AC0
:101C800089819A8102969A838983280E391ECE14FF
:101C9000DF04ECF04601880C991C9FEF891A990A21
:101CA00082019401AD80BE80AC18BD08A501B301CE
:101CB0006E0D7F1D88EA93E00E94010B9401A5013F
:101CC000B3016E197F0988EA93E00E94010B298510
:101CD0003A852C153D05F1F0B901660D771D82019D
:101CE00089809A8032E0831A91089401AF80B88489
:101CF000AE18BF08A50188EA93E00E94010BB3016A
:101D000089859A85681B790B9401A50188EA93E07F
:101D10000E94010BDA86C9869ACF88EA93E02A9658
:101D20000FB6F894DEBF0FBECDBFDF91CF911F91EC
:101D30000F91FF90EF90DF90CF90BF90AF909F906A
:101D40008F907F906F905F904F903F902F900C946A
:101D5000CC0D0895FC016370668B8481958126818A
:101D60003781613039F0633029F09187808733877C
:101D700022870895318720879387828708952F923D
:101D80003F924F925F926F927F928F929F92AF920B
:101D9000BF92CF92DF92EF92FF920F931F93CF9358
:101DA000DF93CDB7DEB76A970FB6F894DEBF0FBEEC
:101DB000CDBF9A8F898F7A8369834A01D22E188783
:101DC0000F833701BC2CDC0159962D913C915A9719
:101DD0002115310509F015C118968D919C9119971F
:101DE000681779070CF0D7C11A968D919C91481706
:101DF00059070CF0D0C14C2C512CB6E0CB9E600D95
:101E0000711D11247C876B87161617060CF0C3C151
:101E1000EA2DF0E0FA87E98793E0EE0FFF1F9A952D
:101E2000E1F7F88BEF87CF01840F951F181619067D
:101E30000CF0B1C1A98DBA8D58968C91811104C056
:101E4000BFEABD1508F4D394A98DBA8DED91FC912C
:101E500011970284F385E02DCD011995B5E0DB9E45
:101E6000C0011124E981FA81FC83EB83312C212C00
:101E70009C0124563E4F388F2F8B4A2D50E05E8BAD
:101E80004D8BEF89F88DE20DF31D44919E828D827A
:101E9000D12CC12C69817A81620D731D7A8B698B7B
:101EA000842F90E09C8B8B8BE98DFA8DA081B18182
:101EB00040FF82C0F1E0BF126FC0AF126DC01C9630
:101EC000ED91FC912F813885A4014C0D5D1D698930
:101ED0007A89898D9A8D1995EB89FC89F595E79515
:101EE0004E2F5FEFC51AD50A6D817E818D899E893F
:101EF000680F791F7E836D8398E0C916D10481F63F
:101F0000AFEF2A1A3A0AEB81FC81E40DF51DFC8340
:101F1000EB83F5E02F16310409F0B3CF2F8138851C
:101F200026153705B9F0A98DBA8DED91FC91B1E078
:101F3000BB1257C0AB1255C069817A816B5F7F4F6E
:101F40000088F189E02D830128E030E0A401898D2B
:101F50009A8D1995A98DBA8DED91FC9111970688EE
:101F6000F789E02DCD016A960FB6F894DEBF0FBE5B
:101F7000CDBFDF91CF911F910F91FF90EF90DF9038
:101F8000CF90BF90AF909F908F907F906F905F9019
:101F90004F903F902F9019941E96ED91FC91EF80F9
:101FA000F88409851A8592014D815E816B817C815F
:101FB000898D9A8D199590CF2F81388526153705F3
:101FC00009F48ACF31E0B31207C0A31205C01C96F2
:101FD000ED91FC91930178CF1E96ED91FC917301E8
:101FE000E0CF6B857C85641975090684F785E02D43
:101FF00073010F8518899201A401898D9A8D199515
:10200000A9CFF90134969491329745915491D91AF8
:10201000B7E0DB9E400D511D1124F901259134914B
:102020003C8B2B8BFA0125903490FA0132967490F8
:1020300031963491398B329664903196449041E0D8
:102040004C1518F04A1508F07FC0662D062C000CC0
:10205000770B7C836B83842D042C000C990B9E835F
:102060008D83A98DBA8DED91FC9111970284F38532
:10207000E02DCD011995512CD12CC12CEA2DF0E089
:10208000FA87E9872B2D30E03C872B87A401440D8C
:10209000511D47FC5A95588F4F8B69817A81660D87
:1020A000711D67FC7A957E876D877989C71608F060
:1020B00051CF2C2D30E04D815E81420F531FA985F9
:1020C000BA854A9FC0014B9F900D5A9F900D1124D5
:1020D000FC01E80DF91DF88BEF87852D612C4F89E8
:1020E000588D420F531F5E8B4D8B671408F050C004
:1020F00044244394480E877041F4C1010196EB8952
:10210000FC89E20DF31DD4901C01D7FE19C0A98DE6
:10211000BA8DED91FC91662D70E0B1E0BB1219C053
:10212000AB1217C02D853E85620F731F0484F585A1
:10213000E02D2F8138854D895E89898D9A8D19957D
:10214000DD0C6394842DD1CF1E821D821C821B82E4
:1021500088CF4B815C81640F751FAB85BC856A9FFE
:10216000C0016B9F900D7A9F900D112469817A8137
:10217000680F791F0684F785E02DEF80F8840985C4
:102180001A859D014F855889898D9A8D1995D8CFCB
:10219000570CC3948ACF6A960FB6F894DEBF0FBE71
:1021A000CDBFDF91CF911F910F91FF90EF90DF9006
:1021B000CF90BF90AF909F908F907F906F905F90E7
:1021C0004F903F902F9008958F929F92AF92CF9211
:1021D000EF92FF920F931F93CF93DF93EC01262F83
:1021E000898D9A8D009709F051C06A30D1F41D860F
:1021F0001C868D8948E0849F900111248E859F85DF
:10220000820F931F9F878E8781E090E0DF91CF91AF
:102210001F910F91FF90EF90CF90AF909F908F9074
:1022200008956D3089F3CC88AD888F898823C1F0FB
:102230008C859D8536E0C39E800D911D11244885B7
:1022400059854817590764F44E855F851D861C869D
:1022500038E0A39EC0011124840F951F9F878E87AD
:10226000EA88FB88088919894E855F856C857D859C
:10227000CE010E94BF0E2C898C859D8546E0249F4F
:10228000800D911D11249D878C87BECF6A3069F423
:102290001D861C86FC013896E4912D898E859F85CC
:1022A000E29F800D911D1124ADCF6D3009F4ACCFAC
:1022B000FC0134963491631708F4A6CF3296E4916A
:1022C000E61708F4A1CFFC01329685909490462F32
:1022D000431B342F47E0349F800C911C1124F401E0
:1022E000329634913196E4913323A9F1EE2399F19A
:1022F000CC88F4013596E491AD884F89442301F1EF
:102300000E2E000CFF0BE30FF11DCE9EA001CF9E01
:10231000500D11246C857D85460F571F6885798582
:10232000641775076CF44E855F851D861C86FC015D
:102330003896E491AE9E400D511D11245F874E8763
:10234000EA88FB88088919894E855F856C857D85BB
:10235000CE010E94BF0EF4013496E4912C898C8545
:102360009D85E29F800D911D11248DCF6F927F92EC
:102370008F929F92AF92BF92CF92DF92EF92FF9295
:102380000F931F93CF93DF93EC016B015A01390137
:102390004801E881F9810284F385E02D1995E881EF
:1023A000F9810288F389E02D87019301A501B60127
:1023B000CE011995A501480D591D41505109E881DB
:1023C000F9810288F389E02D9301B601CE011995B8
:1023D000E881F9810088F189E02D9401A501B60119
:1023E000CE011995C60CD71CB60161507109E88160
:1023F000F9810088F189E02D9401A501CE0119959C
:10240000E881F9810688F789E02DCE01DF91CF912F
:102410001F910F91FF90EF90DF90CF90BF90AF9002
:102420009F908F907F906F9019946F927F928F9270
:102430009F92AF92BF92CF92DF92EF92FF920F9353
:102440001F93CF93DF935C01EB016A0149013801CF
:102450008701DC01ED91FC916217730719F5641691
:1024600075062CF0962D872D3A01C92ED82E96018F
:10247000261937092F5F3F4F048CF58DE02DA301FE
:10248000BE01C5011995DF91CF911F910F91FF906A
:10249000EF90DF90CF90BF90AF909F908F907F9004
:1024A0006F9008954615570591F42617370724F0C5
:1024B000892D4B01C22FD82F9E01281939092F5F72
:1024C0003F4F068CF78DE02DA601B401DACF0284D0
:1024D000F385E02D1995D501ED91FC910488F589DE
:1024E000E02D83019401A601BE01C5011995D50116
:1024F000ED91FC910688F789E02DC501DF91CF9120
:102500001F910F91FF90EF90DF90CF90BF90AF9011
:102510009F908F907F906F901994EF92FF920F93FE
:102520001F93DC011A960D911C911B9718962D9103
:102530003C911997ED91FC9100A0F1A1E02D7B0158
:1025400050E040E070E060E019951F910F91FF901E
:10255000EF9008954F925F926F927F928F929F9229
:10256000AF92BF92CF92DF92EF92FF920F931F93A1
:10257000CF93DF936C012B015A0139014801DC0133
:10258000ED91FC910284F385E02D1995E201640C34
:10259000751CD601ED91FC91C615D7055CF4008839
:1025A000F189E02D87019401A501BE01C6011995AD
:1025B0002196EFCF0688F789E02DC601DF91CF91F4
:1025C0001F910F91FF90EF90DF90CF90BF90AF9051
:1025D0009F908F907F906F905F904F9019948F9203
:1025E0009F92AF92BF92CF92DF92EF92FF920F93A2
:1025F0001F93CF93DF93EC015B014A016901E881EE
:10260000F9810284F385E02D199595012C0D3D1D6E
:1026100021503109E881F9810488F589E02D78019C
:102620008401A401B501CE011995E881F9810688DC
:10263000F789E02DCE01DF91CF911F910F91FF908F
:10264000EF90DF90CF90BF90AF909F908F901994B4
:102650008F929F92AF92BF92CF92DF92EF92FF92B2
:102660000F931F93CF93DF93EC015B014A01690144
:102670007801E881F9810284F385E02D1995C80C71
:10268000D91C860101501109E881F9810488F58976
:10269000E02D9501A401B501CE011995E881F981DC
:1026A0000688F789E02DCE01DF91CF911F910F9120
:1026B000FF90EF90DF90CF90BF90AF909F908F9062
:1026C0001994EF92FF920F931F93DC01ED91FC910F
:1026D00000A0F1A1E02D19951F910F91FF90EF90AF
:1026E00008950F931F93DC01ED91FC91068CF78DFB
:1026F000E02D19951F910F9108950F931F93DC0101
:10270000ED91FC91048CF58DE02D19951F910F91A1
:102710000895DC01ED91FC910084F185E02D199480
:102720002F923F924F925F926F927F928F929F92E1
:10273000AF92BF92CF92DF92EF92FF920F931F93CF
:10274000CF93DF9300D000D0CDB7DEB73C016A0154
:102750003E832D83FC82EB825801A41AB50AB7FE92
:1027600003C0B194A194B1088D809E80861A970A07
:1027700097FE03C09194819491088A149B045CF0A5
:10278000902F812F0D811E819D838E839C2D8D2DF9
:102790006B01692F782F0C151D055CF09D818E81D2
:1027A0007E836D83692F782F902F812F8601C92E0C
:1027B000D82E1601201A310A2B012D813E81421A92
:1027C000530A57FE03C0519441945108710137FEDA
:1027D00003C03FEFE31AF30AF594E7948D819E81DD
:1027E000861797075CF5A1E0B0E0BA83A983C0160D
:1027F000D1064CF1D301ED91FC910484F585E02DD7
:102800002B813C81A8016D817E818A149B041CF080
:102810004D815E81B801C3011995E418F508F7FEF2
:102820000AC02D813E8189819A81280F391F3E83FC
:102830002D83E20CF31C0F5F1F4FD9CF2FEF3FEF1B
:102840003A832983D4CF26960FB6F894DEBF0FBE05
:10285000CDBFDF91CF911F910F91FF90EF90DF904F
:10286000CF90BF90AF909F908F907F906F905F9030
:102870004F903F902F900895089590E080E0089544
:10288000AF92BF92CF92DF92EF92FF920F931F937E
:10289000CF93DF93EC016B015A010A811B812881E0
:1028A0003981488559856E817F81F12CE12C88EA38
:1028B00093E00E94750A488559854C0D5D1D598726
:1028C00048870A811B81288139816E817F8175014A
:1028D00088EA93E00E94750ADF91CF911F910F91D2
:1028E000FF90EF90DF90CF90BF90AF900895EF9260
:1028F000FF920F931F93CF93DF93EC017D836C8343
:102900002881398180E190E06130710521F080E912
:1029100090E0821B930B9F838E830A811B814885E5
:1029200059856E817F81F12CE12C88EA93E00E9429
:10293000750A80E390E0998788874FEF5FEF70E03A
:1029400060E0CE01DF91CF911F910F91FF90EF904A
:102950000C944014FC0101900020E9F73197AF017D
:10296000481B590BBC0185EE92E00C9461058F92D7
:102970009F92AF92BF920F931F93CF93DF93CDB7E8
:10298000DEB7A1970FB6F894DEBF0FBECDBF19A278
:10299000423008F44AE08E010F5D1F4F842E912CC7
:1029A000B12CA12CA50194010E94EF1FE62FB901C3
:1029B000CA01EA30F4F4E05DD801EE938D01232BD7
:1029C000242B252B79F790E080E0109719F0CD01AA
:1029D0000E94AA14A1960FB6F894DEBF0FBECDBF19
:1029E000DF91CF911F910F91BF90AF909F908F90EB
:1029F0000895E95CE1CF8F929F92AF92BF92CF9200
:102A0000DF92EF92FF92E0908203F0908303609157
:102A100088037091890380918A0390918B030E94AF
:102A200004214B016091840370918503809186039A
:102A3000909187030E940421CB0130E020E0A701A0
:102A4000B4010E94D70D80E090E0A0EAB2E4809348
:102A5000840390938503A0938603B093870380E05B
:102A600090E0A0E8B2E48093880390938903A09358
:102A70008A03B0938B0340918203509183032FEF1D
:102A80003FEF60E470E080E590E00E94D70D0E9487
:102A9000651F24E0C22ED12CE12CF12CA701960158
:102AA0000E94BD1F9B01AC0122503109410951090F
:102AB000A3E0B0E00E94DC1F0E943C2160938C03E5
:102AC00070938D0380938E0390938F030E94651FF4
:102AD000A70196010E94BD1F9B01AC012250310944
:102AE00041095109A3E0B0E00E94DC1F0E943C2193
:102AF0006093900370939103809392039093930358
:102B000020E030E0A90160918C0370918D038091E9
:102B10008E0390918F030E948D2081110CC080E064
:102B200090E0A0E4B0E480938C0390938D03A09395
:102B30008E03B0938F03FF90EF90DF90CF90BF9004
:102B4000AF909F908F9008954F925F926F927F9277
:102B50008F929F92AF92BF92CF92DF92EF92FF92AD
:102B60000F931F93CF936B017C01742EAC019B01DB
:102B70000E945E22882399F087E492E0CF911F9112
:102B80000F91FF90EF90DF90CF90BF90AF909F900C
:102B90008F907F906F905F904F900C94AA14460195
:102BA0005701E894B7F82FEF3FEF4FE75FE7C50114
:102BB000B4010E945E2281110DC02FEF3FEF4FE75D
:102BC0005FE7C501B4010E948D2018161CF48BE448
:102BD00092E0D4CF2FEF3FEF4FE75FE4C701B6019C
:102BE0000E94EC2118161CF48FE492E0C7CF2FEF5F
:102BF0003FEF4FE75FECC701B6010E948D2087FDD4
:102C0000F3CF20E030E0A901C701B6010E948D207A
:102C100010E000E087FF0AC06DE285EE92E00E94BE
:102C2000F7058C01F7FAF094F7F8F094C0E060E053
:102C300070E080E09FE37C1641F020E030E040E26D
:102C400051E40E949220CF5FF6CFA70196010E9427
:102C500021202B013C010E940B214B015C014AE029
:102C60000E94B7147C01E00EF11ECC23C1F1C50116
:102C7000B4010E943A219B01AC01C301B2010E9440
:102C800020204B015C016EE285EE92E00E94F70588
:102C9000E80EF91EC15018F120E030E040E251E4A6
:102CA000C501B4010E94F1212B013C010E940B21BE
:102CB0004B01B12CA12C4AE0C501B4010E94B7140C
:102CC000E80EF91EC501B4010E943A219B01AC0136
:102CD000C301B2010E9420204B015C01DBCFC70180
:102CE000CF911F910F91FF90EF90DF90CF90BF9009
:102CF000AF909F908F907F906F905F904F900895CE
:102D0000882389F080918C0390918D03A0918E038C
:102D1000B0918F03B05880938C0390938D03A09350
:102D20008E03B0938F03662389F080919003909176
:102D30009103A0919203B0919303B05880939003B4
:102D400090939103A0939203B093930360918C03AB
:102D500070918D0380918E0390918F0342E00E94C9
:102D6000A41583E592E00E94AA14609190037091EB
:102D70009103809192039091930342E00E94A415E5
:102D800085E592E00C94AA14CF92DF92EF92FF9225
:102D90000F931F93CF93DF93EC01162F6C817D81EE
:102DA0000E9477148FE1E82EF12C112331F1CC80B1
:102DB000DD800D2C000CEE08FF084AE0C701B601CB
:102DC000F7FE0DC06DE285EE92E00E94F7056627E2
:102DD0007727CB016C197D098E099F094AE00E9473
:102DE000B71488E592E00E94AA1485E592E00E945B
:102DF000AA1490EEE92E97E0F92E03E010E0A70167
:102E000070E060E0CE010E9440146AEF70E080E064
:102E100090E00E942E054FEF5FEF70E060E0CE0182
:102E20000E9440146AEF70E080E090E00E942E055E
:102E30000150110921F7DF91CF911F910F91FF9060
:102E4000EF90DF90CF9008950E947A22CF92DF9288
:102E5000EF92FF920F931F93CF93DF93EC016A01E0
:102E60007B01C114D104E104F10439F4C12C48E41C
:102E7000D42E48EEE42EFF24F394FE01FF96C08288
:102E8000D182E282F38281E28DAF80E28EAF36960C
:102E900010818FA987FD07C061E00E94D80461E01E
:102EA0008FA90E944C0461E088AD0E94D80461E0C3
:102EB00088AD0E944C048DA9811182C040E052E18E
:102EC0006AE770E0C416D506E606F70640F4769584
:102ED0006795579547958F5F8630A1F787E0212F3B
:102EE0002C702065982F9695922B99A380958170D0
:102EF0008AA3812F90E0B0E0A0E08BA39CA3ADA3B8
:102F0000BEA31FB7F8948091DB02811127C0EEE1C8
:102F1000F8E08491EEEBF7E09491E82FF0E0EE0F0B
:102F2000FF1FE15FF84FA591B491EC91E92321F4E3
:102F300061E085E30E944C0461E085E30E94D804CF
:102F40008CB580618CBD8CB580648CBD61E084E300
:102F50000E94D80461E083E30E94D8048091DB02E0
:102F60008F5F8093DB021FBF8EA987FD75C061E074
:102F70000E94D80461E08EA90E944C0464E670E0CF
:102F800080E090E00E942E0560E08EA90E944C0433
:102F900064E670E080E090E00E942E0561E08EA97A
:102FA0000E944C0468EC70E080E090E0DF91CF91EB
:102FB0001F910F91FF90EF90DF90CF900C942E0512
:102FC00009EE17E0F12C8130B9F461E08AA50E9486
:102FD000D80460E08AA50E944C0461E08CA50E94A0
:102FE000D80460E08CA50E944C048BA587FDBCCF63
:102FF00060E00E94D804B8CFF8018491E82FF0E097
:10300000EE0FFF1FE153F84F859194912F8D38A15A
:103010002817390741F461E08F2D0E94D80460E041
:103020008F2D0E944C04F3940F5F1F4FF6E4FF12A4
:10303000E3CF61E08EA50E94D80461E08EA50E94D6
:103040004C048FA587FD90CF61E00E94D80461E019
:103050008FA50E944C0488CFDF91CF911F910F91D3
:10306000FF90EF90DF90CF9008951F93CF93DF9361
:1030700085ED8093BC0080916D0290916E02A091CD
:103080006F02B09170020796A11DB11D23E0B695A5
:10309000A795979587952A95D1F72091BC0024FD97
:1030A00003C01092B50252C040916D0250916E0261
:1030B00060916F0270917002452B462B472B69F38C
:1030C0000097A105B10541F02AE22A95F1F700C069
:1030D0000197A109B109E1CF80916C02C1E0C093D1
:1030E0006B02882399F1D091B8001091BA008091B9
:1030F000BC008A7B8093BC0060E084E10E944C04A9
:1031000060E085E10E944C041092B502C093B702C2
:103110001092B60261E084E10E944C0461E085E116
:103120000E944C048091B9008E7F8093B9008091F9
:10313000B9008D7F8093B90088E48093B80085E45E
:103140008093BC001093BA00D093B800DF91CF9168
:103150001F9108951F920F920FB60F9211242F9373
:103160003F938F939F93AF93BF938091DD02909194
:10317000DE02A091DF02B091E0023091DC0223E098
:10318000230F2D3758F50196A11DB11D2093DC02A8
:103190008093DD029093DE02A093DF02B093E00201
:1031A0008091E1029091E202A091E302B091E402E9
:1031B0000196A11DB11D8093E1029093E202A093BC
:1031C000E302B093E402BF91AF919F918F913F9141
:1031D0002F910F900FBE0F901F90189526E8230F88
:1031E0000296A11DB11DD2CF1F920F920FB60F9262
:1031F00011240BB60F922F933F934F935F936F93CE
:103200007F938F939F93AF93BF93EF93FF9385EE3D
:1032100092E00E94D505FF91EF91BF91AF919F91F0
:103220008F917F916F915F914F913F912F910F906F
:103230000BBE0F900FBE0F901F9018951F920F920C
:103240000FB60F9211240BB60F922F938F939F936B
:10325000EF93FF93E091F502F091F6028081E09107
:10326000FB02F091FC0282FD1DC090818091FE0264
:103270008F5F8F732091FF02821741F0E091FE0271
:10328000F0E0EB51FD4F958F8093FE02FF91EF919F
:103290009F918F912F910F900BBE0F900FBE0F90AB
:1032A0001F9018958081F2CF1F920F920FB60F9248
:1032B00011240BB60F922F933F934F935F936F930D
:1032C0007F938F939F93AF93BF93EF93FF938091DF
:1032D000B900887F803609F44DC008F040C08832BC
:1032E00009F4A7C028F5803109F49BC0C8F48823ED
:1032F00009F4F7C0883009F494C0FF91EF91BF91B1
:10330000AF919F918F917F916F915F914F913F917D
:103310002F910F900BBE0F900FBE0F901F9018951E
:10332000883109F486C0803241F78093B40214C01A
:10333000803409F49BC040F48033B9F38833E9F654
:103340008093B40285ECAEC0803509F483C0883523
:1033500009F494C0883489F60E943518CECF883994
:1033600009F48AC038F5883729F050F4883611F00E
:10337000803719F683E08093B5021092B30255C0EE
:10338000883809F479C0803919F0803809F0B5CF50
:103390008091B302803208F06FC0E091B30281E007
:1033A0008E0F8093B3028091BB00F0E0ED56FD4F8D
:1033B00080833BC0803B39F0D0F4803A09F477C079
:1033C000883A09F09ACF84E08093B5021092920275
:1033D00010929102F0E0E0E0199580919102811144
:1033E0000FC081E0809391021092710209C0803C6D
:1033F00009F4A8CF883C09F4A5CF883B09F07DCF1C
:10340000E091920281E08E0F80939202F0E0EF58FB
:10341000FD4F80818093BB00909192028091910238
:1034200029C08091DA028093BB0085EC8093BC00B8
:1034300064CF9091D9028091D802981758F5E09105
:10344000D90281E08E0F8093D902F0E0E854FD4F5D
:103450008081E9CFE091D90281E08E0F8093D9027B
:103460008091BB00F0E0E854FD4F80839091D90239
:103470008091D8029817C8F285E8D8CFE091D90298
:1034800081E08E0F8093D9028091BB00F0E0E85478
:10349000FD4F80838091B70281115ECF81E08093E0
:1034A000B60284EA8093BC001092B50226CF85EC68
:1034B0008093BC001092B5028091B302803230F448
:1034C000E091B302F0E0ED56FD4F10826091B3023F
:1034D00070E083E992E0F0E0E0E019951092B30229
:1034E0000CCF1092B40238CFE5EEF2E013821282D4
:1034F00088EE93E0A0E0B0E084839583A683B78351
:1035000089E092E09183808385EC90E095878487C1
:1035100084EC90E09787868780EC90E0918B808B9D
:1035200081EC90E0938B828B82EC90E0958B848B86
:1035300086EC90E0978B868B118E128E138E148EF4
:10354000A8EAB3E013961C921E92129720E830E08E
:1035500015963C932E93149780EA90E017969C93CF
:103560008E93169719963C932E9318971B969C93BF
:103570008E931A9756961C9256971D961C921E92E1
:103580001C971F961C921E921E9781E055968C9355
:10359000559754968C9354972FEF3FEF53963C9347
:1035A0002E93529751963C932E93509757968C9307
:1035B000579758961C9258975A961C921E92599754
:1035C000D5968C93D59788E0D6968C93D6978AE03B
:1035D000D7968C93D79789E0D8968C93D897DA961C
:1035E0001C921E92D997DC961C921E92DB97DD9658
:1035F0001C92DD97DE961C92DE971092E7031092E4
:10360000E8031092E9031092EA038DE09C968C93F4
:103610009C978BE09A968C939A978FEF9B968C93BE
:103620009B9782EF97E0FC012491E22FF0E0EE0FF0
:10363000FF1FE153F84F259134915E963C932E93F2
:103640005D97E2E9F7E03491D3963C93D397E6EFA8
:10365000F7E0E491F0E0EE0FFF1FE153F84F4591E2
:10366000549194965C934E939397E6E9F7E02491F6
:1036700097962C939797E4EFF7E0E491F0E0EE0F44
:10368000FF1FE153F84F4591549192965C934E93EE
:103690009197E4E9F7E0449195964C939597E3EF81
:1036A000F7E0E491F0E0EE0FFF1FE153F84F659172
:1036B00074915C967C936E935B97E3E9F7E0549189
:1036C000D1965C93D197FC018491E82FF0E0EE0F46
:1036D000FF1FE159F84F8591949190969C938E939A
:1036E0005F9799961C929997E52FE095D296EC9367
:1036F000D2973095D4963C93D497209598962C9356
:103700009897409596964C9396971092EB0310924B
:10371000EC031092ED038BE192E08D939C93EEE924
:10372000F3E044E050E05183408320E230E0338313
:10373000228380E390E091878087E4E9F3E051837E
:1037400040833383228391878087E2E8F3E083E03C
:1037500090E09183808380E090E0A0EAB2E48283ED
:103760009383A483B58380E090E0A0E8B2E48683ED
:103770009783A087B1870895CF93DF9300D000D0BF
:10378000CDB7DEB7789484B5826084BD84B581609E
:1037900084BD85B5826085BD85B5816085BD80911C
:1037A0006E00816080936E00109281008091810094
:1037B000826080938100809181008160809381008C
:1037C000809180008160809380008091B10084604E
:1037D0008093B1008091B00081608093B0008091AF
:1037E000910082608093910080919100816080932C
:1037F0009100809190008160809390008091A10061
:1038000082608093A1008091A10081608093A100DB
:103810008091A00081608093A0008091210182604E
:103820008093210180912101816080932101809109
:10383000200181608093200180917A0084608093D0
:103840007A0080917A00826080937A0080917A0079
:10385000816080937A0080917A00806880937A00FA
:103860001092C1002FB7F8946091DD027091DE02D2
:103870008091DF029091E0022FBF611571058105F3
:10388000910511F00E94B41FE091F502F091F6024B
:1038900022E02083E091F502F091F6021082E0919F
:1038A000F102F091F2021082E091F302F091F40241
:1038B00080E180831092FD02E091F902F091FA021A
:1038C00086E08083E091F702F091F80280818061C8
:1038D0008083E091F702F091F80280818860808314
:1038E000E091F702F091F802808180688083E09196
:1038F000F702F091F80280818F7D808340E050E0F4
:10390000BA0188EA93E00E94261784ED96E00E94AF
:103910002F0C87EC96E00E942F0C32E03093EB03E3
:1039200081E08093EC038CE996E00E942F0C1092CA
:10393000EE0360E088EA93E00E94360D70E060E0FC
:1039400088EA93E00E948D1263E088EA93E00E9487
:10395000360D8EE592E00E94AA1485E592E00E9461
:10396000AA140FEF1FEF28E930E044E050E064E0D4
:1039700070E088EA93E00E94040A28E730E044E01F
:1039800050E064E070E088EA93E00E94930928E642
:103990003FEF4CE750E06CE970E088EA93E00E946A
:1039A000040A28E83FEF4CE750E06CE970E088EA51
:1039B00093E00E94930961E070E08EE993E00E9439
:1039C000771462E070E084E993E00E9477140E942B
:1039D000FB140BE910E060918203709183036B5F2D
:1039E0007F4F072E000C880B990B0E943C219B01F6
:1039F000AC0160918403709185038091860390915E
:103A000087030E948D20811110C060E081E00E9438
:103A100080160E94FB1461E084E993E00E94C416C2
:103A200060E08EE993E00E94C41680918203909139
:103A30008303B801681B790B072E000C880B990BC8
:103A40000E943C219B01AC0160918403709185032D
:103A500080918603909187030E948D20811110C070
:103A600060E081E00E9480160E94FB1461E08EE914
:103A700093E00E94C41660E084E993E00E94C416BB
:103A80008091A6039091A70320910002222309F4BC
:103A900070C14FEF5FEF6DEF7FEF08970CF076C1CD
:103AA00010920002E0909C03F0909D038091960399
:103AB000909197039A838983BC0197FF02C06F5F3F
:103AC0007F4F759567956E0D7F1D072E000C880B37
:103AD000990B0E943C214B015C014090880350905F
:103AE000890360908A0370908B03A30192010E9466
:103AF0008D2087FF54C129813A812E0D3F1D4FEF44
:103B00005FEF63E070E0293731050CF459C1409054
:103B100084035090850360908603709087038091A2
:103B20008203909183039E838D83BC01990F880B40
:103B3000990B0E943C214B015C01C0908803D090FE
:103B40008903E0908A03F0908B03AC019B01C301D1
:103B5000B2010E94212020E030E040E450E40E94C5
:103B6000212069837A838B839C8360919A0370916F
:103B70009B03072E000C880B990B0E943C219B0194
:103B8000AC0169817A818B819C810E948D20811199
:103B900021C1A0909C03B0909D0360919603709109
:103BA00097036A0D7B1D2D813E81620F731F072EC7
:103BB000000C880B990B0E943C21A70196010E94E2
:103BC000EC211816ACF4B5018D819E81681B790B30
:103BD000072E000C880B990B0E943C21A70196012F
:103BE0000E948D2087FF04C060E081E00E94801663
:103BF000C0908803D0908903E0908A03F0908B03F3
:103C00006091820370918303072E000C880B990B3F
:103C10000E943C214B015C01AC019B01C701B60134
:103C20000E94202020E030E040E450E40E94202068
:103C300020E030E040E85FE30E94202020E030E018
:103C400040E850E40E948D2087FD1AC0A501940130
:103C5000C701B6010E94212020E030E040E450E49A
:103C60000E94212020E030E040E85FE30E94212014
:103C700020E030E048EF52E40E94EC21181624F4D2
:103C800061E080E00E9480162091820330918303DE
:103C90003A832983609188037091890380918A0314
:103CA00090918B030E9404216B01609184037091B9
:103CB000850380918603909187030E940421CB01A4
:103CC00030E020E049815A81B6010E94D70D209151
:103CD000900330919103409192035091930360912E
:103CE00088037091890380918A0390918B030E94CD
:103CF00021204B015C018092880390928903A0925D
:103D00008A03B0928B0320918C0330918D034091F4
:103D10008E0350918F03609184037091850380918D
:103D20008603909187030E9421206B017C01C09241
:103D30008403D0928503E0928603F09287038091FA
:103D40008203909183039A838983C501B4010E9401
:103D500004214B01C701B6010E940421CB012FEFC2
:103D60003FEF49815A81B4010E94D70D0E94640639
:103D700032CE2091A0033091A103820F931F893787
:103D800091054CF44FEF5FEF63E070E08EE993E054
:103D90000E94401487CE81E08093000283CEA3016D
:103DA0009201C501B4010E94EC21181674F44FEF82
:103DB0005FEF6DEF7FEF38E0E316F1040CF4A7CE70
:103DC00084E993E00E944014A2CE4FEF5FEF70E0D1
:103DD00060E0F6CFA5019401C301B2010E9420204A
:103DE00020E030E040E450E40E9420204B015C01E0
:103DF0006091A4037091A50380919E0390919F030D
:103E0000680F791F072E000C880B990B0E943C212C
:103E10009B01AC01C501B4010E948D208111E8CE47
:103E2000A090A603B090A7036091A0037091A10396
:103E3000B8CE8F929F92AF92BF92CF92DF92EF92C5
:103E4000FF92CF93DF93EC01688179818A819B8116
:103E5000611571058105910521F464E279ED8BE529
:103E600097E02DE133EF41E050E00E94BD1F490192
:103E70005A019B01AC01A7EAB1E40E94DC1F6B016F
:103E80007C01ACEEB4EFA50194010E94EA1FC60EBE
:103E9000D71EE81EF91EF7FE06C081E0C81AD10839
:103EA000E10880E8F80AC882D982EA82FB82C70169
:103EB000B6019F77DF91CF91FF90EF90DF90CF9089
:103EC000BF90AF909F908F9008958F929F92AF92E6
:103ED000BF92CF92DF92EF92FF92609101027091B8
:103EE000020280910302909104026115710581051F
:103EF000910521F464E279ED8BE597E02DE133EF54
:103F000041E050E00E94BD1F49015A019B01AC01F4
:103F1000A7EAB1E40E94DC1F6B017C01ACEEB4EFB8
:103F2000A50194010E94EA1FC60ED71EE81EF91EC5
:103F3000F7FE06C081E0C81AD108E10880E8F80A57
:103F4000C0920102D0920202E0920302F0920402B7
:103F5000C701B6019F77FF90EF90DF90CF90BF90A1
:103F6000AF909F908F90089560930102709302022A
:103F700080930302909304020895052E97FB1EF48C
:103F800000940E94D41F57FD07D00E94EF1F07FC2A
:103F900003D04EF40C94D41F509540953095219544
:103FA0003F4F4F4F5F4F0895909580957095619565
:103FB0007F4F8F4F9F4F08950E941120A59F900D16
:103FC000B49F900DA49F800D911D11240895B7FFFB
:103FD0000C94DC1F0E94DC1F821B930B0895A1E24E
:103FE0001A2EAA1BBB1BFD010DC0AA1FBB1FEE1F73
:103FF000FF1FA217B307E407F50720F0A21BB30BBE
:10400000E40BF50B661F771F881F991F1A9469F739
:1040100060957095809590959B01AC01BD01CF0195
:104020000895A29FB001B39FC001A39F700D811D91
:104030001124911DB29F700D811D1124911D0895B1
:104040005058BB27AA270E9438200C94B2210E9406
:10405000A42138F00E94AB2120F039F49F3F19F4DD
:1040600026F40C94A1210EF4E095E7FB0C949B211F
:10407000E92F0E94C32158F3BA1762077307840718
:10408000950720F079F4A6F50C94E5210EF4E0955F
:104090000B2EBA2FA02D0B01B90190010C01CA0102
:1040A000A0011124FF27591B99F0593F50F4503EAD
:1040B00068F11A16F040A22F232F342F4427585F9F
:1040C000F3CF469537952795A795F0405395C9F7B7
:1040D0007EF41F16BA0B620B730B840BBAF091506F
:1040E000A1F0FF0FBB1F661F771F881FC2F70EC00E
:1040F000BA0F621F731F841F48F4879577956795E1
:10410000B795F7959E3F08F0B0CF9395880F08F0CC
:104110009927EE0F9795879508950E94772108F4C7
:1041200081E008950E94A6200C94B2210E94AB2148
:1041300058F00E94A42140F029F45F3F29F00C942C
:104140009B2151110C94E6210C94A1210E94C321C2
:1041500068F39923B1F3552391F3951B550BBB27B6
:10416000AA2762177307840738F09F5F5F4F220FFB
:10417000331F441FAA1FA9F335D00E2E3AF0E0E8F2
:1041800032D091505040E695001CCAF72BD0FE2F3C
:1041900029D0660F771F881FBB1F261737074807D0
:1041A000AB07B0E809F0BB0B802DBF01FF27935888
:1041B0005F4F3AF09E3F510578F00C949B210C9490
:1041C000E6215F3FE4F3983ED4F3869577956795B3
:1041D000B795F7959F5FC9F7880F911D96958795BD
:1041E00097F90895E1E0660F771F881FBB1F6217DC
:1041F00073078407BA0720F0621B730B840BBA0B9A
:10420000EE1F88F7E09508950E940B216894B11184
:104210000C94E62108950E94CB2188F09F5798F0D6
:10422000B92F9927B751B0F0E1F0660F771F881FBB
:10423000991F1AF0BA95C9F714C0B13091F00E94D5
:10424000E521B1E008950C94E521672F782F8827A8
:10425000B85F39F0B93FCCF3869577956795B395FC
:10426000D9F73EF490958095709561957F4F8F4F6B
:104270009F4F0895E89409C097FB3EF49095809570
:10428000709561957F4F8F4F9F4F9923A9F0F92F1C
:1042900096E9BB279395F695879577956795B7959A
:1042A000F111F8CFFAF4BB0F11F460FF1BC06F5F80
:1042B0007F4F8F4F9F4F16C0882311F096E911C092
:1042C000772321F09EE8872F762F05C0662371F0B3
:1042D00096E8862F70E060E02AF09A95660F771FC7
:1042E000881FDAF7880F9695879597F90895990FA3
:1042F0000008550FAA0BE0E8FEEF16161706E807B0
:10430000F907C0F012161306E407F50798F0621BD0
:10431000730B840B950B39F40A2661F0232B242BA5
:10432000252B21F408950A2609F4A140A6958FEFC4
:10433000811D811D089597F99F6780E870E060E016
:1043400008959FEF80EC089500240A94161617062E
:1043500018060906089500240A9412161306140676
:1043600005060895092E0394000C11F4882352F0D9
:10437000BB0F40F4BF2B11F460FF04C06F5F7F4F91
:104380008F4F9F4F089557FD9058440F551F59F078
:104390005F3F71F04795880F97FB991F61F09F3F32
:1043A00079F087950895121613061406551FF2CF5B
:1043B0004695F1DF08C0161617061806991FF1CFAB
:1043C00086957105610508940895E894BB276627D2
:1043D0007727CB0197F908950E94772108F48FEF92
:1043E00008950E9404220C94B2210E94A42138F066
:1043F0000E94AB2120F0952311F00C949B210C948A
:10440000A12111240C94E6210E94C32170F3959FF1
:10441000C1F3950F50E0551F629FF001729FBB27BB
:10442000F00DB11D639FAA27F00DB11DAA1F649F57
:104430006627B00DA11D661F829F2227B00DA11D0A
:10444000621F739FB00DA11D621F839FA00D611D90
:10445000221F749F3327A00D611D231F849F600DB1
:10446000211D822F762F6A2F11249F5750409AF0DA
:10447000F1F088234AF0EE0FFF1FBB1F661F771F66
:10448000881F91505040A9F79E3F510580F00C9431
:104490009B210C94E6215F3FE4F3983ED4F386958C
:1044A00077956795B795F795E7959F5FC1F7FE2BD1
:1044B000880F911D9695879597F908950E94772109
:1044C000880B990B0895EE0FFF1F881F8BBF079075
:1044D000F691E02D19940E941120332312F48A1BC7
:1044E0009B0B0C9475220E941120B7FF0895821B2C
:1044F000930B089581E090E0F8940C947F22F89457
:02450000FFCFEB
:10450200010100000000000000F70561058E05446E
:1045120006BF059D05B10500000000E41061053DE0
:10452200143C1498081D0CEB0B820B010B420B90F0
:1045320013CC0D360D7B089309040A750A8D1215EA
:1045420012B611261719086E616E00696E66006F49
:1045520076660009000D0A002077696E0A00496E2E
:0A456200697469616C697A65640090
:00000001FF
